8=FIXT.1.1|9=261|35=D|34=7637|49=DEMO-CONN1|52=20230117-10:13:28.639|56=fix-server1|11=6714118|22=8|38=10|40=2|44=56|48=INSTR1|54=1|59=0|60=20230117-10:13:27.819612|526=22222|528=A|581=1|453=4|448=DEMO-CONN1|447=D|452=76|448=0|447=P|452=3|448=0|447=P|452=122|448=3|447=P|452=12|10=201|